{
  "contractName": "ReceivingScores",
  "abi": [
    {
      "constant": true,
      "inputs": [
        {
          "internalType": "uint256",
          "name": "",
          "type": "uint256"
        }
      ],
      "name": "studentScore",
      "outputs": [
        {
          "internalType": "uint256",
          "name": "",
          "type": "uint256"
        }
      ],
      "payable": false,
      "stateMutability": "view",
      "type": "function"
    },
    {
      "constant": false,
      "inputs": [
        {
          "internalType": "uint256",
          "name": "student",
          "type": "uint256"
        },
        {
          "internalType": "address",
          "name": "deployed",
          "type": "address"
        },
        {
          "internalType": "uint256",
          "name": "minPercent",
          "type": "uint256"
        }
      ],
      "name": "recieveScores",
      "outputs": [],
      "payable": false,
      "stateMutability": "nonpayable",
      "type": "function"
    }
  ],
  "bytecode": "0x608060405234801561001057600080fd5b5061039f806100206000396000f3fe608060405234801561001057600080fd5b50600436106100365760003560e01c806317d9500e1461003b57806380de10ba1461006b575b600080fd5b61005560048036036100509190810190610227565b610087565b60405161006291906102d7565b60405180910390f35b61008560048036036100809190810190610279565b61009f565b005b60006020528060005260406000206000915090505481565b6000829050818173ffffffffffffffffffffffffffffffffffffffff1663e7611fa1866040518263ffffffff1660e01b81526004016100de91906102d7565b602060405180830381600087803b1580156100f857600080fd5b505af115801561010c573d6000803e3d6000fd5b505050506040513d601f19601f820116820180604052506101309190810190610250565b106101db578073ffffffffffffffffffffffffffffffffffffffff1663e7611fa1856040518263ffffffff1660e01b815260040161016e91906102d7565b602060405180830381600087803b15801561018857600080fd5b505af115801561019c573d6000803e3d6000fd5b505050506040513d601f19601f820116820180604052506101c09190810190610250565b600080868152602001908152602001600020819055506101e1565b506101e3565b505b505050565b6000813590506101f78161032e565b92915050565b60008135905061020c81610345565b92915050565b60008151905061022181610345565b92915050565b60006020828403121561023957600080fd5b6000610247848285016101fd565b91505092915050565b60006020828403121561026257600080fd5b600061027084828501610212565b91505092915050565b60008060006060848603121561028e57600080fd5b600061029c868287016101fd565b93505060206102ad868287016101e8565b92505060406102be868287016101fd565b9150509250925092565b6102d181610324565b82525050565b60006020820190506102ec60008301846102c8565b92915050565b60006102fd82610304565b9050919050565b600073ffffffffffffffffffffffffffffffffffffffff82169050919050565b6000819050919050565b610337816102f2565b811461034257600080fd5b50565b61034e81610324565b811461035957600080fd5b5056fea365627a7a7231582052aebc4cd3ec270a96dd04f708455c217d6f0b2e7e851faee2f6e04e545014b56c6578706572696d656e74616cf564736f6c63430005100040",
  "source": "// SPDX-License-Identifier: MIT\r\npragma solidity >=0.4.22 <0.9.0;\r\npragma experimental ABIEncoderV2;\r\n\r\ncontract Register {\r\n    uint256 testTaker = 0;\r\n\r\n    struct Student {\r\n        uint256 idNum;\r\n        string photoHash;\r\n        string name;\r\n        string StreetAddress;\r\n        bool valid;\r\n    }\r\n\r\n    mapping(uint256 => Student) public students;\r\n\r\n    function register(\r\n        string memory _photoHash,\r\n        string memory _name,\r\n        string memory _streetAddress\r\n    ) public {\r\n        testTaker++;\r\n        bool tempValid = true;\r\n\r\n        for (uint256 i = 1; i <= testTaker; i++) {\r\n            if (\r\n                keccak256(abi.encodePacked(students[i].photoHash)) ==\r\n                keccak256(abi.encodePacked(_photoHash))\r\n            ) {\r\n                tempValid = false;\r\n            }\r\n        }\r\n        if (tempValid) {\r\n            students[testTaker] = Student(\r\n                testTaker,\r\n                _photoHash,\r\n                _name,\r\n                _streetAddress,\r\n                tempValid\r\n            );\r\n        } else return;\r\n    }\r\n\r\n    function getID() public returns (uint256) {\r\n        return testTaker;\r\n    }\r\n\r\n    struct Grade {\r\n        uint256 percent;\r\n        uint256 correct;\r\n        uint256 wrong;\r\n    }\r\n\r\n    mapping(uint256 => Grade) public Grades;\r\n\r\n    function gradeTest(string[] memory answers, string[] memory answerKey)\r\n        public\r\n    {\r\n        uint256 correct;\r\n\r\n        for (uint256 i = 0; i < answers.length; i++) {\r\n            if (\r\n                keccak256(abi.encodePacked(answers[i])) ==\r\n                keccak256(abi.encodePacked(answerKey[i]))\r\n            ) {\r\n                correct++;\r\n            }\r\n        }\r\n        Grades[testTaker].percent = (correct) / answerKey.length;\r\n        Grades[testTaker].wrong = answerKey.length - correct;\r\n        Grades[testTaker].correct = correct;\r\n    }\r\n\r\n    function getPercent(uint256 student) public returns (uint256) {\r\n        return Grades[student].percent;\r\n    }\r\n\r\n    function getWrong(uint256 student) public returns (uint256) {\r\n        return Grades[student].wrong;\r\n    }\r\n\r\n    function getcorrect(uint256 student) public returns (uint256) {\r\n        return Grades[student].correct;\r\n    }\r\n}\r\n\r\ncontract ReceivingScores {\r\n    mapping(uint256 => uint256) public studentScore;\r\n\r\n    function recieveScores(\r\n        uint256 student,\r\n        address deployed,\r\n        uint256 minPercent\r\n    ) public {\r\n        Register test = Register(deployed);\r\n\r\n        if (test.getPercent(student) >= minPercent)\r\n            studentScore[student] = test.getPercent(student);\r\n        else return;\r\n    }\r\n}\r\n",
  "sourcePath": "C:/Users/jscha/OneDrive/Desktop/NewStandardizedTestDapp/NewStandardizedDapp/src/contracts/RegistrationAndExam.sol",
  "compiler": {
    "name": "solc",
    "version": "0.5.16+commit.9c3226ce.Emscripten.clang"
  },
  "schemaVersion": "3.2.3",
  "updatedAt": "2021-06-24T18:01:01.950Z",
  "networkType": "ethereum",
  "devdoc": {
    "methods": {}
  },
  "userdoc": {
    "methods": {}
  }
}