{
  "contractName": "Register",
  "abi": [
    {
      "constant": true,
      "inputs": [
        {
          "internalType": "uint256",
          "name": "",
          "type": "uint256"
        }
      ],
      "name": "Grades",
      "outputs": [
        {
          "internalType": "uint256",
          "name": "percent",
          "type": "uint256"
        },
        {
          "internalType": "uint256",
          "name": "correct",
          "type": "uint256"
        },
        {
          "internalType": "uint256",
          "name": "wrong",
          "type": "uint256"
        }
      ],
      "payable": false,
      "stateMutability": "view",
      "type": "function"
    },
    {
      "constant": true,
      "inputs": [
        {
          "internalType": "uint256",
          "name": "",
          "type": "uint256"
        }
      ],
      "name": "students",
      "outputs": [
        {
          "internalType": "uint256",
          "name": "idNum",
          "type": "uint256"
        },
        {
          "internalType": "string",
          "name": "photoHash",
          "type": "string"
        },
        {
          "internalType": "string",
          "name": "name",
          "type": "string"
        },
        {
          "internalType": "string",
          "name": "StreetAddress",
          "type": "string"
        },
        {
          "internalType": "bool",
          "name": "valid",
          "type": "bool"
        }
      ],
      "payable": false,
      "stateMutability": "view",
      "type": "function"
    },
    {
      "constant": false,
      "inputs": [
        {
          "internalType": "string",
          "name": "_photoHash",
          "type": "string"
        },
        {
          "internalType": "string",
          "name": "_name",
          "type": "string"
        },
        {
          "internalType": "string",
          "name": "_streetAddress",
          "type": "string"
        }
      ],
      "name": "register",
      "outputs": [],
      "payable": false,
      "stateMutability": "nonpayable",
      "type": "function"
    },
    {
      "constant": false,
      "inputs": [],
      "name": "getID",
      "outputs": [
        {
          "internalType": "uint256",
          "name": "",
          "type": "uint256"
        }
      ],
      "payable": false,
      "stateMutability": "nonpayable",
      "type": "function"
    },
    {
      "constant": false,
      "inputs": [
        {
          "internalType": "string[]",
          "name": "answers",
          "type": "string[]"
        },
        {
          "internalType": "string[]",
          "name": "answerKey",
          "type": "string[]"
        }
      ],
      "name": "gradeTest",
      "outputs": [],
      "payable": false,
      "stateMutability": "nonpayable",
      "type": "function"
    },
    {
      "constant": false,
      "inputs": [
        {
          "internalType": "uint256",
          "name": "student",
          "type": "uint256"
        }
      ],
      "name": "getPercent",
      "outputs": [
        {
          "internalType": "uint256",
          "name": "",
          "type": "uint256"
        }
      ],
      "payable": false,
      "stateMutability": "nonpayable",
      "type": "function"
    },
    {
      "constant": false,
      "inputs": [
        {
          "internalType": "uint256",
          "name": "student",
          "type": "uint256"
        }
      ],
      "name": "getWrong",
      "outputs": [
        {
          "internalType": "uint256",
          "name": "",
          "type": "uint256"
        }
      ],
      "payable": false,
      "stateMutability": "nonpayable",
      "type": "function"
    },
    {
      "constant": false,
      "inputs": [
        {
          "internalType": "uint256",
          "name": "student",
          "type": "uint256"
        }
      ],
      "name": "getcorrect",
      "outputs": [
        {
          "internalType": "uint256",
          "name": "",
          "type": "uint256"
        }
      ],
      "payable": false,
      "stateMutability": "nonpayable",
      "type": "function"
    }
  ],
  "bytecode": "0x60806040526000805534801561001457600080fd5b50610dfc806100246000396000f3fe608060405234801561001057600080fd5b50600436106100885760003560e01c806391c1e4fe1161005b57806391c1e4fe1461012b578063ab9dbd071461015b578063e7611fa114610179578063f0ed4b67146101a957610088565b806306ead22e1461008d5780634cd08d03146100c157806363fdebf1146100dd57806385c6b1311461010f575b600080fd5b6100a760048036036100a291908101906109d6565b6101d9565b6040516100b8959493929190610ba6565b60405180910390f35b6100db60048036036100d6919081019061093f565b6103e4565b005b6100f760048036036100f291908101906109d6565b610562565b60405161010693929190610c0e565b60405180910390f35b610129600480360361012491908101906108d3565b61058c565b005b610145600480360361014091908101906109d6565b610694565b6040516101529190610b8b565b60405180910390f35b6101636106b4565b6040516101709190610b8b565b60405180910390f35b610193600480360361018e91908101906109d6565b6106bd565b6040516101a09190610b8b565b60405180910390f35b6101c360048036036101be91908101906109d6565b6106dd565b6040516101d09190610b8b565b60405180910390f35b6001602052806000526040600020600091509050806000015490806001018054600181600116156101000203166002900480601f01602080910402602001604051908101604052809291908181526020018280546001816001161561010002031660029004801561028b5780601f106102605761010080835404028352916020019161028b565b820191906000526020600020905b81548152906001019060200180831161026e57829003601f168201915b505050505090806002018054600181600116156101000203166002900480601f0160208091040260200160405190810160405280929190818152602001828054600181600116156101000203166002900480156103295780601f106102fe57610100808354040283529160200191610329565b820191906000526020600020905b81548152906001019060200180831161030c57829003601f168201915b505050505090806003018054600181600116156101000203166002900480601f0160208091040260200160405190810160405280929190818152602001828054600181600116156101000203166002900480156103c75780601f1061039c576101008083540402835291602001916103c7565b820191906000526020600020905b8154815290600101906020018083116103aa57829003601f168201915b5050505050908060040160009054906101000a900460ff16905085565b60008081548092919060010191905055506000600190506000600190505b6000548111610486578460405160200161041c9190610b5d565b60405160208183030381529060405280519060200120600160008381526020019081526020016000206001016040516020016104589190610b74565b60405160208183030381529060405280519060200120141561047957600091505b8080600101915050610402565b508015610555576040518060a00160405280600054815260200185815260200184815260200183815260200182151581525060016000805481526020019081526020016000206000820151816000015560208201518160010190805190602001906104f29291906106fd565b50604082015181600201908051906020019061050f9291906106fd565b50606082015181600301908051906020019061052c9291906106fd565b5060808201518160040160006101000a81548160ff02191690831515021790555090505061055b565b5061055d565b505b505050565b60026020528060005260406000206000915090508060000154908060010154908060020154905083565b600080600090505b835181101561062d578281815181106105a957fe5b60200260200101516040516020016105c19190610b46565b604051602081830303815290604052805190602001208482815181106105e357fe5b60200260200101516040516020016105fb9190610b46565b6040516020818303038152906040528051906020012014156106205781806001019250505b8080600101915050610594565b508151818161063857fe5b046002600080548152602001908152602001600020600001819055508082510360026000805481526020019081526020016000206002018190555080600260008054815260200190815260200160002060010181905550505050565b600060026000838152602001908152602001600020600101549050919050565b60008054905090565b600060026000838152602001908152602001600020600001549050919050565b600060026000838152602001908152602001600020600201549050919050565b828054600181600116156101000203166002900490600052602060002090601f016020900481019282601f1061073e57805160ff191683800117855561076c565b8280016001018555821561076c579182015b8281111561076b578251825591602001919060010190610750565b5b509050610779919061077d565b5090565b61079f91905b8082111561079b576000816000905550600101610783565b5090565b90565b600082601f8301126107b357600080fd5b81356107c66107c182610c72565b610c45565b9150818183526020840193506020810190508360005b8381101561080c57813586016107f28882610816565b8452602084019350602083019250506001810190506107dc565b5050505092915050565b600082601f83011261082757600080fd5b813561083a61083582610c9a565b610c45565b9150808252602083016020830185838301111561085657600080fd5b610861838284610d4f565b50505092915050565b600082601f83011261087b57600080fd5b813561088e61088982610cc6565b610c45565b915080825260208301602083018583830111156108aa57600080fd5b6108b5838284610d4f565b50505092915050565b6000813590506108cd81610da2565b92915050565b600080604083850312156108e657600080fd5b600083013567ffffffffffffffff81111561090057600080fd5b61090c858286016107a2565b925050602083013567ffffffffffffffff81111561092957600080fd5b610935858286016107a2565b9150509250929050565b60008060006060848603121561095457600080fd5b600084013567ffffffffffffffff81111561096e57600080fd5b61097a8682870161086a565b935050602084013567ffffffffffffffff81111561099757600080fd5b6109a38682870161086a565b925050604084013567ffffffffffffffff8111156109c057600080fd5b6109cc8682870161086a565b9150509250925092565b6000602082840312156109e857600080fd5b60006109f6848285016108be565b91505092915050565b610a0881610d39565b82525050565b6000610a1982610d12565b610a238185610d2e565b9350610a33818560208601610d5e565b80840191505092915050565b6000610a4a82610d07565b610a548185610d1d565b9350610a64818560208601610d5e565b610a6d81610d91565b840191505092915050565b6000610a8382610d07565b610a8d8185610d2e565b9350610a9d818560208601610d5e565b80840191505092915050565b600081546001811660008114610ac65760018114610aeb57610b2f565b607f6002830416610ad78187610d2e565b955060ff1983168652808601935050610b2f565b60028204610af98187610d2e565b9550610b0485610cf2565b60005b82811015610b2657815481890152600182019150602081019050610b07565b82880195505050505b505092915050565b610b4081610d45565b82525050565b6000610b528284610a78565b915081905092915050565b6000610b698284610a0e565b915081905092915050565b6000610b808284610aa9565b915081905092915050565b6000602082019050610ba06000830184610b37565b92915050565b600060a082019050610bbb6000830188610b37565b8181036020830152610bcd8187610a3f565b90508181036040830152610be18186610a3f565b90508181036060830152610bf58185610a3f565b9050610c0460808301846109ff565b9695505050505050565b6000606082019050610c236000830186610b37565b610c306020830185610b37565b610c3d6040830184610b37565b949350505050565b6000604051905081810181811067ffffffffffffffff82111715610c6857600080fd5b8060405250919050565b600067ffffffffffffffff821115610c8957600080fd5b602082029050602081019050919050565b600067ffffffffffffffff821115610cb157600080fd5b601f19601f8301169050602081019050919050565b600067ffffffffffffffff821115610cdd57600080fd5b601f19601f8301169050602081019050919050565b60008190508160005260206000209050919050565b600081519050919050565b600081519050919050565b600082825260208201905092915050565b600081905092915050565b60008115159050919050565b6000819050919050565b82818337600083830152505050565b60005b83811015610d7c578082015181840152602081019050610d61565b83811115610d8b576000848401525b50505050565b6000601f19601f8301169050919050565b610dab81610d45565b8114610db657600080fd5b5056fea365627a7a723158203fb75d5f3f232e8527c9d396eab00b52300577d2448d0934a740c1cf166492426c6578706572696d656e74616cf564736f6c63430005100040",
  "source": "// SPDX-License-Identifier: MIT\r\npragma solidity >=0.4.22 <0.9.0;\r\npragma experimental ABIEncoderV2;\r\n\r\ncontract Register {\r\n    uint256 testTaker = 0;\r\n\r\n    struct Student {\r\n        uint256 idNum;\r\n        string photoHash;\r\n        string name;\r\n        string StreetAddress;\r\n        bool valid;\r\n    }\r\n\r\n    mapping(uint256 => Student) public students;\r\n\r\n    function register(\r\n        string memory _photoHash,\r\n        string memory _name,\r\n        string memory _streetAddress\r\n    ) public {\r\n        testTaker++;\r\n        bool tempValid = true;\r\n\r\n        for (uint256 i = 1; i <= testTaker; i++) {\r\n            if (\r\n                keccak256(abi.encodePacked(students[i].photoHash)) ==\r\n                keccak256(abi.encodePacked(_photoHash))\r\n            ) {\r\n                tempValid = false;\r\n            }\r\n        }\r\n        if (tempValid) {\r\n            students[testTaker] = Student(\r\n                testTaker,\r\n                _photoHash,\r\n                _name,\r\n                _streetAddress,\r\n                tempValid\r\n            );\r\n        } else return;\r\n    }\r\n\r\n    function getID() public returns (uint256) {\r\n        return testTaker;\r\n    }\r\n\r\n    struct Grade {\r\n        uint256 percent;\r\n        uint256 correct;\r\n        uint256 wrong;\r\n    }\r\n\r\n    mapping(uint256 => Grade) public Grades;\r\n\r\n    function gradeTest(string[] memory answers, string[] memory answerKey)\r\n        public\r\n    {\r\n        uint256 correct;\r\n\r\n        for (uint256 i = 0; i < answers.length; i++) {\r\n            if (\r\n                keccak256(abi.encodePacked(answers[i])) ==\r\n                keccak256(abi.encodePacked(answerKey[i]))\r\n            ) {\r\n                correct++;\r\n            }\r\n        }\r\n        Grades[testTaker].percent = (correct) / answerKey.length;\r\n        Grades[testTaker].wrong = answerKey.length - correct;\r\n        Grades[testTaker].correct = correct;\r\n    }\r\n\r\n    function getPercent(uint256 student) public returns (uint256) {\r\n        return Grades[student].percent;\r\n    }\r\n\r\n    function getWrong(uint256 student) public returns (uint256) {\r\n        return Grades[student].wrong;\r\n    }\r\n\r\n    function getcorrect(uint256 student) public returns (uint256) {\r\n        return Grades[student].correct;\r\n    }\r\n}\r\n\r\ncontract ReceivingScores {\r\n    mapping(uint256 => uint256) public studentScore;\r\n\r\n    function recieveScores(\r\n        uint256 student,\r\n        address deployed,\r\n        uint256 minPercent\r\n    ) public {\r\n        Register test = Register(deployed);\r\n\r\n        if (test.getPercent(student) >= minPercent)\r\n            studentScore[student] = test.getPercent(student);\r\n        else return;\r\n    }\r\n}\r\n",
  "sourcePath": "C:/Users/jscha/OneDrive/Desktop/NewStandardizedTestDapp/NewStandardizedDapp/src/contracts/RegistrationAndExam.sol",
  "compiler": {
    "name": "solc",
    "version": "0.5.16+commit.9c3226ce.Emscripten.clang"
  },
  "schemaVersion": "3.2.3",
  "updatedAt": "2021-06-24T18:01:00.942Z",
  "networkType": "ethereum",
  "devdoc": {
    "methods": {}
  },
  "userdoc": {
    "methods": {}
  }
}